:100000000C9434000C9451000C9451000C94510049
:100010000C9451000C9451000C9451000C9451001C
:100020000C9451000C9451000C9451000C9451000C
:100030000C9451000C9451000C9451000C945100FC
:100040000C9451000C9451000C9445010C945100F7
:100050000C9451000C9451000C9451000C945100DC
:100060000C9451000C94510011241FBECFEFD8E026
:10007000DEBFCDBF11E0A0E0B1E0EAE7F4E002C0EE
:1000800005900D92AE38B107D9F711E0AEE8B1E0B6
:1000900001C01D92A13DB107E1F70E94BA000C9486
:1000A0003B020C94000041505040469F9001479FF6
:1000B000300D569F300D1124280F391FC9010895A6
:1000C000CF92DF92EF92FF920F931F93CF93DF9324
:1000D0007C016B01EA012130F1F480E091E00E94A3
:1000E0009C012197CC9D9001CD9D300DDC9D300D64
:1000F00011242196EE0CFF1C2E0D3F1DCE0162E057
:1001000070E00E94F201269FC001279F900D369F4C
:10011000900D112420C0222321F500E010E040E0E2
:100120000EC0215030402C9DC0012D9D900D3C9D56
:10013000900D11248E0D9F1D080F191F4F5F242F46
:10014000332727FD30952C173D075CF38FE091E0B6
:100150000E949C01C8010E949C018CE091E00E94D9
:100160009C01DF91CF911F910F91FF90EF90DF9055
:10017000CF9008950F931F9360E875E280E090E0C0
:100180000E9471018BE191E00E949C010E9491010B
:100190008823E1F388EE93E020E931E0F90131971B
:1001A000F1F70197D9F780E090E00E94D40188EE42
:1001B00093E020E931E0F9013197F1F70197D9F7A0
:1001C00083E391E00E949C010E9491018823E1F366
:1001D00088EE93E020E931E0F9013197F1F70197DA
:1001E000D9F788EE93E020E931E0F9013197F1F792
:1001F0000197D9F786E491E00E949C010E94910149
:100200008823E1F388EE93E020E931E0F9013197AA
:10021000F1F70197D9F786E591E00E949C0180E013
:1002200090E00E949C018AE691E00E949C0180E09F
:1002300090E00E949C0186E791E00E949C0180E092
:1002400090E00E949C018CE791E00E949C0180E07C
:1002500090E060E070E040E050E00E9453008C01CC
:1002600080E090E060E070E040E050E025E40E9433
:1002700060008FE791E00E949C01C8010E949C01F0
:100280008CE791E00E949C01FFCF1F920F920FB666
:100290000F9211248F939F93EF93FF93809190017E
:1002A0009091C600E82FF0E0EF56FE4F90838F5FED
:1002B00080939001809190018F7380939001809141
:1002C0008E01803428F480918E018F5F80938E019F
:1002D000FF91EF919F918F910F900FBE0F901F9004
:1002E00018959B01AC0180E28093C00088E980935F
:1002F000C10086E08093C20084E0220F331F441FB8
:10030000551F8A95D1F760E074E284EF90E00E9477
:100310000502215030403093C5002093C4007894EA
:10032000089580918E010895982F8091C00085FFD7
:10033000FCCF9093C6000895FC0107C08091C000D7
:1003400085FFFCCF9093C600319690819923B1F739
:1003500008959C01F9012F5F3F4F9491992339F043
:100360008091C00085FFFCCF9093C600F3CF089525
:1003700080918E01882311F4EFEF14C080918F01DA
:10038000E82FF0E0EF56FE4FE0818F5F80938F0102
:1003900080918F018F7380938F0180918E018150A6
:1003A00080938E018E2F0895EF92FF921F93CF932B
:1003B000DF937C0110E006C00E94B801CE0DDF1D66
:1003C00088831F5F80918E01C12FD0E08823A1F721
:1003D000CE0DDF1D1882812FDF91CF911F91FF90ED
:1003E000EF90089597FB092E07260AD077FD04D0D9
:1003F0002ED006D000201AF4709561957F4F089595
:10040000F6F7909581959F4F0895A1E21A2EAA1BA9
:10041000BB1BFD010DC0AA1FBB1FEE1FFF1FA217B4
:10042000B307E407F50720F0A21BB30BE40BF50BB1
:10043000661F771F881F991F1A9469F7609570953A
:10044000809590959B01AC01BD01CF010895AA1B39
:10045000BB1B51E107C0AA1FBB1FA617B70710F0AF
:10046000A61BB70B881F991F5A95A9F780959095E1
:0A047000BC01CD010895F894FFCF00
:10047A0073756D615F666F726D3A20000D0A0073C5
:10048A00756D615F697465723A2000556E657369AE
:10049A007465207072766920656C656D656E743A54
:1004AA000D0A00556E65736974652072617A6C690C
:1004BA006B753A0D0A00556E657369746520636C35
:1004CA00616E3A0D0A005072766920656C656D6539
:1004DA006E74206E697A613A20002C2072617A6CFF
:1004EA00696B613A20002C206E3A20000D0A006EDA
:0E04FA002D746920656C656D656E743A200086
:00000001FF
